{
  "transactions": [
    {
      "hash": "0x50332baa8d9613bcb876fc4e3641a71cba1e89b4ff984b8ea8968d0e4a2ce86e",
      "transactionType": "CREATE",
      "contractName": "Proxy",
      "contractAddress": "0x4006deb29eb0824b9191e8502f0ffe07d982001a",
      "function": null,
      "arguments": [
        "0x9D29D33d4329640e96cC259E141838EB3EB2f1d9"
      ],
      "transaction": {
        "from": "0x94e2057d263758630426bbcf1f801bee5bb52de4",
        "gas": "0x25e68",
        "value": "0x0",
        "input": "0x608060405234801561001057600080fd5b506040516101283803806101288339818101604052602081101561003357600080fd5b5051600080546001600160a01b039092166001600160a01b031990921691909117905560c4806100646000396000f3fe6080604052348015600f57600080fd5b506004361060285760003560e01c80636bf39aaa14602d575b600080fd5b60336035565b005b60008054604080516335f9cd5560e11b815290516001600160a01b0390921692636bf39aaa9260048084019382900301818387803b158015607557600080fd5b505af11580156088573d6000803e3d6000fd5b5050505056fea2646970667358221220bd8e534e8e7712864c094705d4294c4e4191b3825817493e0c206496979dd0c164736f6c634300070000330000000000000000000000009d29d33d4329640e96cc259e141838eb3eb2f1d9",
        "nonce": "0x16",
        "chainId": "0xaa36a7"
      },
      "additionalContracts": [],
      "isFixedGasLimit": false
    },
    {
      "hash": "0xee21b878c280ae991b62b6c44d4471c91a050b0fdf1f1375f7e4443e85354606",
      "transactionType": "CALL",
      "contractName": "Proxy",
      "contractAddress": "0x4006deb29eb0824b9191e8502f0ffe07d982001a",
      "function": "addPoint()",
      "arguments": [],
      "transaction": {
        "from": "0x94e2057d263758630426bbcf1f801bee5bb52de4",
        "to": "0x4006deb29eb0824b9191e8502f0ffe07d982001a",
        "gas": "0xb05f",
        "value": "0x0",
        "input": "0x6bf39aaa",
        "nonce": "0x17",
        "chainId": "0xaa36a7"
      },
      "additionalContracts": [],
      "isFixedGasLimit": false
    },
    {
      "hash": "0x0d7b34c5805e1bb103d8dfa03fb0160cb753edb9ccee848bae1d66e5e820a884",
      "transactionType": "CALL",
      "contractName": null,
      "contractAddress": "0x9d29d33d4329640e96cc259e141838eb3eb2f1d9",
      "function": "transfer(address,uint256)",
      "arguments": [
        "0x0000000000000000000000000000000000000000",
        "1"
      ],
      "transaction": {
        "from": "0x94e2057d263758630426bbcf1f801bee5bb52de4",
        "to": "0x9d29d33d4329640e96cc259e141838eb3eb2f1d9",
        "gas": "0x1aa22",
        "value": "0x0",
        "input": "0xa9059cbb00000000000000000000000000000000000000000000000000000000000000000000000000000000000000000000000000000000000000000000000000000001",
        "nonce": "0x18",
        "chainId": "0xaa36a7"
      },
      "additionalContracts": [],
      "isFixedGasLimit": false
    },
    {
      "hash": "0x1a335540eb1554f68e26513ad13545ca376a7e49be58e7fe2c8afddda04f9e02",
      "transactionType": "CALL",
      "contractName": null,
      "contractAddress": "0x9d29d33d4329640e96cc259e141838eb3eb2f1d9",
      "function": "contribute()",
      "arguments": [],
      "transaction": {
        "from": "0x94e2057d263758630426bbcf1f801bee5bb52de4",
        "to": "0x9d29d33d4329640e96cc259e141838eb3eb2f1d9",
        "gas": "0x10d13",
        "value": "0x1",
        "input": "0xd7bb99ba",
        "nonce": "0x19",
        "chainId": "0xaa36a7"
      },
      "additionalContracts": [],
      "isFixedGasLimit": false
    },
    {
      "hash": "0x6feffd00f8e5ca5b5507f0ef6917bfaa126641712009b3db974b854c6711f84f",
      "transactionType": "CALL",
      "contractName": null,
      "contractAddress": "0x9d29d33d4329640e96cc259e141838eb3eb2f1d9",
      "function": null,
      "arguments": null,
      "transaction": {
        "from": "0x94e2057d263758630426bbcf1f801bee5bb52de4",
        "to": "0x9d29d33d4329640e96cc259e141838eb3eb2f1d9",
        "gas": "0x11e83",
        "value": "0x1",
        "input": "0x",
        "nonce": "0x1a",
        "chainId": "0xaa36a7"
      },
      "additionalContracts": [],
      "isFixedGasLimit": false
    }
  ],
  "receipts": [
    {
      "status": "0x1",
      "cumulativeGasUsed": "0xa018da",
      "logs": [],
      "logsBloom": "0x00000000000000000000000000000000000000000000000000000000000000000000000000000000000000000000000000000000000000000000000000000000000000000000000000000000000000000000000000000000000000000000000000000000000000000000000000000000000000000000000000000000000000000000000000000000000000000000000000000000000000000000000000000000000000000000000000000000000000000000000000000000000000000000000000000000000000000000000000000000000000000000000000000000000000000000000000000000000000000000000000000000000000000000000000000000",
      "type": "0x2",
      "transactionHash": "0x50332baa8d9613bcb876fc4e3641a71cba1e89b4ff984b8ea8968d0e4a2ce86e",
      "transactionIndex": "0x5b",
      "blockHash": "0x077a67eaa14abc609340305b46e257b9f89264b9850f97ea4bf2f4796259141b",
      "blockNumber": "0x60fb5a",
      "gasUsed": "0x1d28e",
      "effectiveGasPrice": "0x6159d4693",
      "from": "0x94e2057d263758630426bbcf1f801bee5bb52de4",
      "to": null,
      "contractAddress": "0x4006deb29eb0824b9191e8502f0ffe07d982001a"
    },
    {
      "status": "0x1",
      "cumulativeGasUsed": "0xa09173",
      "logs": [],
      "logsBloom": "0x00000000000000000000000000000000000000000000000000000000000000000000000000000000000000000000000000000000000000000000000000000000000000000000000000000000000000000000000000000000000000000000000000000000000000000000000000000000000000000000000000000000000000000000000000000000000000000000000000000000000000000000000000000000000000000000000000000000000000000000000000000000000000000000000000000000000000000000000000000000000000000000000000000000000000000000000000000000000000000000000000000000000000000000000000000000",
      "type": "0x2",
      "transactionHash": "0xee21b878c280ae991b62b6c44d4471c91a050b0fdf1f1375f7e4443e85354606",
      "transactionIndex": "0x5c",
      "blockHash": "0x077a67eaa14abc609340305b46e257b9f89264b9850f97ea4bf2f4796259141b",
      "blockNumber": "0x60fb5a",
      "gasUsed": "0x7899",
      "effectiveGasPrice": "0x6159d4693",
      "from": "0x94e2057d263758630426bbcf1f801bee5bb52de4",
      "to": "0x4006deb29eb0824b9191e8502f0ffe07d982001a",
      "contractAddress": null
    },
    {
      "status": "0x1",
      "cumulativeGasUsed": "0xa1c5f7",
      "logs": [],
      "logsBloom": "0x00000000000000000000000000000000000000000000000000000000000000000000000000000000000000000000000000000000000000000000000000000000000000000000000000000000000000000000000000000000000000000000000000000000000000000000000000000000000000000000000000000000000000000000000000000000000000000000000000000000000000000000000000000000000000000000000000000000000000000000000000000000000000000000000000000000000000000000000000000000000000000000000000000000000000000000000000000000000000000000000000000000000000000000000000000000",
      "type": "0x2",
      "transactionHash": "0x0d7b34c5805e1bb103d8dfa03fb0160cb753edb9ccee848bae1d66e5e820a884",
      "transactionIndex": "0x5d",
      "blockHash": "0x077a67eaa14abc609340305b46e257b9f89264b9850f97ea4bf2f4796259141b",
      "blockNumber": "0x60fb5a",
      "gasUsed": "0x13484",
      "effectiveGasPrice": "0x6159d4693",
      "from": "0x94e2057d263758630426bbcf1f801bee5bb52de4",
      "to": "0x9d29d33d4329640e96cc259e141838eb3eb2f1d9",
      "contractAddress": null
    },
    {
      "status": "0x1",
      "cumulativeGasUsed": "0xa288c6",
      "logs": [],
      "logsBloom": "0x00000000000000000000000000000000000000000000000000000000000000000000000000000000000000000000000000000000000000000000000000000000000000000000000000000000000000000000000000000000000000000000000000000000000000000000000000000000000000000000000000000000000000000000000000000000000000000000000000000000000000000000000000000000000000000000000000000000000000000000000000000000000000000000000000000000000000000000000000000000000000000000000000000000000000000000000000000000000000000000000000000000000000000000000000000000",
      "type": "0x2",
      "transactionHash": "0x1a335540eb1554f68e26513ad13545ca376a7e49be58e7fe2c8afddda04f9e02",
      "transactionIndex": "0x5e",
      "blockHash": "0x077a67eaa14abc609340305b46e257b9f89264b9850f97ea4bf2f4796259141b",
      "blockNumber": "0x60fb5a",
      "gasUsed": "0xc2cf",
      "effectiveGasPrice": "0x6159d4693",
      "from": "0x94e2057d263758630426bbcf1f801bee5bb52de4",
      "to": "0x9d29d33d4329640e96cc259e141838eb3eb2f1d9",
      "contractAddress": null
    },
    {
      "status": "0x1",
      "cumulativeGasUsed": "0xa35835",
      "logs": [],
      "logsBloom": "0x00000000000000000000000000000000000000000000000000000000000000000000000000000000000000000000000000000000000000000000000000000000000000000000000000000000000000000000000000000000000000000000000000000000000000000000000000000000000000000000000000000000000000000000000000000000000000000000000000000000000000000000000000000000000000000000000000000000000000000000000000000000000000000000000000000000000000000000000000000000000000000000000000000000000000000000000000000000000000000000000000000000000000000000000000000000",
      "type": "0x2",
      "transactionHash": "0x6feffd00f8e5ca5b5507f0ef6917bfaa126641712009b3db974b854c6711f84f",
      "transactionIndex": "0x5f",
      "blockHash": "0x077a67eaa14abc609340305b46e257b9f89264b9850f97ea4bf2f4796259141b",
      "blockNumber": "0x60fb5a",
      "gasUsed": "0xcf6f",
      "effectiveGasPrice": "0x6159d4693",
      "from": "0x94e2057d263758630426bbcf1f801bee5bb52de4",
      "to": "0x9d29d33d4329640e96cc259e141838eb3eb2f1d9",
      "contractAddress": null
    }
  ],
  "libraries": [],
  "pending": [],
  "returns": {},
  "timestamp": 1721646475,
  "chain": 11155111,
  "commit": "457f1f2"
}