{
  "transactions": [
    {
      "hash": "0xc6e93c273fa63bb6c7693d402fea2028a4130df67b2d431795b49026abcfe396",
      "transactionType": "CREATE",
      "contractName": "Proxy",
      "contractAddress": "0xefacd6fc335489ce4fcfdd6d6a2e076ee1d0a4d9",
      "function": null,
      "arguments": [
        "0x9D29D33d4329640e96cC259E141838EB3EB2f1d9"
      ],
      "transaction": {
        "from": "0x94e2057d263758630426bbcf1f801bee5bb52de4",
        "gas": "0x25e68",
        "value": "0x0",
        "input": "0x608060405234801561001057600080fd5b506040516101283803806101288339818101604052602081101561003357600080fd5b5051600080546001600160a01b039092166001600160a01b031990921691909117905560c4806100646000396000f3fe6080604052348015600f57600080fd5b506004361060285760003560e01c80636bf39aaa14602d575b600080fd5b60336035565b005b60008054604080516335f9cd5560e11b815290516001600160a01b0390921692636bf39aaa9260048084019382900301818387803b158015607557600080fd5b505af11580156088573d6000803e3d6000fd5b5050505056fea2646970667358221220bd8e534e8e7712864c094705d4294c4e4191b3825817493e0c206496979dd0c164736f6c634300070000330000000000000000000000009d29d33d4329640e96cc259e141838eb3eb2f1d9",
        "nonce": "0x14",
        "chainId": "0xaa36a7"
      },
      "additionalContracts": [],
      "isFixedGasLimit": false
    },
    {
      "hash": "0x73d4a224fb540eb675acbecd15a9d23cc9bca4b08fa6584ddda74e0a2348a277",
      "transactionType": "CALL",
      "contractName": "Proxy",
      "contractAddress": "0xefacd6fc335489ce4fcfdd6d6a2e076ee1d0a4d9",
      "function": "addPoint()",
      "arguments": [],
      "transaction": {
        "from": "0x94e2057d263758630426bbcf1f801bee5bb52de4",
        "to": "0xefacd6fc335489ce4fcfdd6d6a2e076ee1d0a4d9",
        "gas": "0x18be4",
        "value": "0x0",
        "input": "0x6bf39aaa",
        "nonce": "0x15",
        "chainId": "0xaa36a7"
      },
      "additionalContracts": [],
      "isFixedGasLimit": false
    },
    {
      "hash": null,
      "transactionType": "CALL",
      "contractName": null,
      "contractAddress": "0x9d29d33d4329640e96cc259e141838eb3eb2f1d9",
      "function": "transfer(address,uint256)",
      "arguments": [
        "0x0000000000000000000000000000000000000000",
        "1"
      ],
      "transaction": {
        "from": "0x94e2057d263758630426bbcf1f801bee5bb52de4",
        "to": "0x9d29d33d4329640e96cc259e141838eb3eb2f1d9",
        "gas": "0x1aa22",
        "value": "0x0",
        "input": "0xa9059cbb00000000000000000000000000000000000000000000000000000000000000000000000000000000000000000000000000000000000000000000000000000001",
        "nonce": "0x16",
        "chainId": "0xaa36a7"
      },
      "additionalContracts": [],
      "isFixedGasLimit": false
    },
    {
      "hash": null,
      "transactionType": "CALL",
      "contractName": null,
      "contractAddress": "0x9d29d33d4329640e96cc259e141838eb3eb2f1d9",
      "function": "contribute()",
      "arguments": [],
      "transaction": {
        "from": "0x94e2057d263758630426bbcf1f801bee5bb52de4",
        "to": "0x9d29d33d4329640e96cc259e141838eb3eb2f1d9",
        "gas": "0x10d13",
        "value": "0x1",
        "input": "0xd7bb99ba",
        "nonce": "0x17",
        "chainId": "0xaa36a7"
      },
      "additionalContracts": [],
      "isFixedGasLimit": false
    },
    {
      "hash": null,
      "transactionType": "CALL",
      "contractName": null,
      "contractAddress": "0x9d29d33d4329640e96cc259e141838eb3eb2f1d9",
      "function": null,
      "arguments": null,
      "transaction": {
        "from": "0x94e2057d263758630426bbcf1f801bee5bb52de4",
        "to": "0x9d29d33d4329640e96cc259e141838eb3eb2f1d9",
        "gas": "0x11e83",
        "value": "0x1",
        "input": "0x",
        "nonce": "0x18",
        "chainId": "0xaa36a7"
      },
      "additionalContracts": [],
      "isFixedGasLimit": false
    }
  ],
  "receipts": [],
  "libraries": [],
  "pending": [
    "0xc6e93c273fa63bb6c7693d402fea2028a4130df67b2d431795b49026abcfe396",
    "0x73d4a224fb540eb675acbecd15a9d23cc9bca4b08fa6584ddda74e0a2348a277"
  ],
  "returns": {},
  "timestamp": 1721646369,
  "chain": 11155111,
  "commit": "457f1f2"
}